:04000000D0EF13F03A
:09080000000000004B2569000016
:10080A004450800B4D6E445044244F6E43AE10EF5B
:10081A0004F012EF04F013EF04F04F804F50D8B4F5
:10082A0019EF04F01BEF04F030EF04F04F28D8A4BE
:10083A0021EF04F023EF04F02BEF04F0000E416ED9
:10084A00000E426E000E436E000E446E438E000E82
:10085A00446E38EF04F0000E416E000E426E000E38
:10086A00436E000E446E4850800B4E6E4D504E182B
:10087A00D8B442EF04F044EF04F045EF04F04D8C95
:10088A00485048244E6E47AE4DEF04F04FEF04F047
:10089A0050EF04F04E804E50D8B456EF04F058EFA3
:1008AA0004F06DEF04F04E28D8A45EEF04F060EF78
:1008BA0004F068EF04F0000E456E000E466E000E5E
:1008CA00476E000E486E478E000E486E75EF04F0B4
:1008DA00000E456E000E466E000E476E000E486E04
:1008EA004F504E5CD8B07CEF04F07EEF04F0A5EFD9
:1008FA0004F04DAC83EF04F085EF04F087EF04F0C9
:10090A00800E4D1A4FC050F04EC04FF050C04EF0FE
:10091A0041C050F045C041F050C045F042C050F0CF
:10092A0046C042F050C046F043C050F047C043F0C2
:10093A0050C047F044C050F048C044F050C048F09E
:10094A00000E506E4F504EC049F04A6A495E000E82
:10095A004A5A4ABEBAEF04F04A5009E11A0E495CF3
:10096A00D8A0BAEF04F0BCEF04F0F3EF04F0415062
:10097A00421043104410D8A4C5EF04F0C8EF04F0A5
:10098A00010EC9EF04F0000E506E000E416E000E0B
:10099A00426E000E436E000E446E4EC04FF0FCEFE6
:1009AA0004F050A0DBEF04F0DDEF04F0E3EF04F015
:1009BA00D89050300109506EE5EF04F0D8905032CB
:1009CA0041A0EAEF04F0ECEF04F0EDEF04F0508EF2
:1009DA00443444324332423241324F2A4E504F5C01
:1009EA00D8A0FAEF04F0FCEF04F0D6EF04F04DBC07
:1009FA0001EF05F003EF05F043EF05F04F50D8A4DF
:100A0A0009EF05F00BEF05F015EF05F0000E416E4A
:100A1A00000E426E000E436E000E446E64EF06F046
:100A2A0045504126465042224750432248504422CC
:100A3A0044A022EF05F024EF05F0D0EF05F050A016
:100A4A0029EF05F02BEF05F031EF05F0D890503083
:100A5A000109506E33EF05F0D890503241A038EFBB
:100A6A0005F03AEF05F03BEF05F0508E443444327E
:100A7A004332423241324F2AD0EF05F04550415CB1
:100A8A0046504258475043584450800A496E48508D
:100A9A00800A4958D8B054EF05F056EF05F081EFB7
:100AAA0005F04150455C496E425046584A6E4350E3
:100ABA0047584B6E445048584C6EFF0E4924416EBD
:100ACA00FF0E4A20426EFF0E4B20436EFF0E4C2053
:100ADA00446E800E4D1A506C5050D8A477EF05F032
:100AEA0079EF05F089EF05F0010E4126000E42224A
:100AFA004322442289EF05F04550415E4650425A4E
:100B0A004750435A4850445A4150421043104410E7
:100B1A00D8A492EF05F094EF05F0C9EF05F0505014
:100B2A00D8A49AEF05F09CEF05F0C9EF05F0000E86
:100B3A00416E000E426E000E436E000E446E64EF6C
:100B4A0006F0D890413642364336443650AEB0EFBE
:100B5A0005F0B2EF05F0B3EF05F0418050A0B8EF11
:100B6A0005F0BAEF05F0BEEF05F0D8805036C0EFB9
:100B7A0005F0D89050364F50D8B4C6EF05F0C8EFFC
:100B8A0005F0C9EF05F04F0643AECEEF05F0D0EF02
:100B9A0005F0A6EF05F0000E4E6E50AED7EF05F049
:100BAA00D9EF05F0F1EF05F050C049F07F0E491674
:100BBA00D8B4E2EF05F0E4EF05F0E8EF05F0010E36
:100BCA004E6EF1EF05F041A0EDEF05F0EFEF05F005
:100BDA00F1EF05F0E4EF05F04E50D8B4F7EF05F069
:100BEA00F9EF05F024EF06F0010E4126000E42222D
:100BFA004322442244A004EF06F006EF06F024EF55
:100C0A0006F041C049F042C04AF043C04BF044C02C
:100C1A004CF04C344C324B324A32493249C041F0E2
:100C2A004AC042F04BC043F04CC044F04F28D8B4FD
:100C3A0021EF06F023EF06F024EF06F04F2A4F28A3
:100C4A00D8B42AEF06F02CEF06F034EF06F04F5036
:100C5A00D8A432EF06F034EF06F046EF06F0000EA5
:100C6A00416E000E426E000E436E000E446E4F50EF
:100C7A00D8A442EF06F044EF06F046EF06F0000E65
:100C8A004D6E4FA04BEF06F04DEF06F050EF06F019
:100C9A00438E51EF06F0439ED8904F30446E4DAECE
:100CAA0059EF06F05BEF06F05CEF06F0448E41C0A8
:100CBA0041F042C042F043C043F044C044F0120045
:100CCA002B50800B346E2B502B243A6E2AAE70EFC9
:100CDA0006F072EF06F073EF06F03A803A50D8B495
:100CEA0079EF06F07BEF06F08EEF06F03A28D8A4EB
:100CFA0081EF06F083EF06F08BEF06F0000E286E08
:100D0A00000E296E000E2A6E000E2B6E2A8E96EFAA
:100D1A0006F0000E286E000E296E000E2A6E000ED6
:100D2A002B6E2F50800B341A2F502F24396E2EAE73
:100D3A00A1EF06F0A3EF06F0A4EF06F039803950D0
:100D4A00D8B4AAEF06F0ACEF06F0BFEF06F03928E8
:100D5A00D8A4B2EF06F0B4EF06F0BCEF06F0000E2E
:100D6A002C6E000E2D6E000E2E6E000E2F6E2E8E25
:100D7A00C7EF06F0000E2C6E000E2D6E000E2E6EC2
:100D8A00000E2F6E3950D8B4CDEF06F0CFEF06F033
:100D9A00D7EF06F03A50D8A4D5EF06F0D7EF06F011
:100DAA00E1EF06F0000E286E000E296E000E2A6E84
:100DBA00000E2B6E79EF08F02E502802F3CF3FF089
:100DCA00F4CF40F03F50356E366A376A386A405081
:100DDA003B6E3C6A3D6A3E6A2D502902F3CF3FF0D2
:100DEA00F4CF40F03F503526000E36223722382203
:100DFA0040503B26000E3C223D223E222C502A0225
:100E0A00F3CF3FF0F4CF40F03F503526000E3622A4
:100E1A003722382240503B26000E3C223D223E22F9
:100E2A0037C038F036C037F035C036F0356A2C5046
:100E3A002902F3CF3FF0F4CF40F03F50352640501F
:100E4A003622000E3722000E38222D502802F3CF08
:100E5A003FF0F4CF40F03F50352640503622000E86
:100E6A003722000E382237C038F036C037F035C086
:100E7A0036F0356A2C502802F3CF3FF0F4CF40F019
:100E8A003F50352640503622000E3722000E3822B7
:100E9A002E502902F3CF3FF0F4CF40F03F503B26CB
:100EAA0040503C22000E3D22000E3E222D502A02C6
:100EBA00F3CF3FF0F4CF40F03F503B2640503C2266
:100ECA00000E3D22000E3E222E502A02F3CF3FF0A2
:100EDA00F4CF40F03F50306E4050316E326A336A80
:100EEA0032C033F031C032F030C031F0306A3050A5
:100EFA003B2631503C2232503D2233503E2235C0EF
:100F0A0030F036C031F037C032F038C033F0190E45
:100F1A0094EF07F0D8903332323231323032E82E41
:100F2A008FEF07F030503B2631503C2232503D22A1
:100F3A0033503E2237C038F036C037F035C036F06D
:100F4A00356A39503AC030F0316A3026000E312203
:100F5A00820E30243F6EFF0E3120406ECAEF07F03A
:100F6A00D8903B363C363D363E3638AEBFEF07F0BA
:100F7A00C1EF07F0C2EF07F03B80D890353636361E
:100F8A00373638363F06D8A040063DAECFEF07F0D9
:100F9A00D1EF07F0B5EF07F0000E396E38AED8EF93
:100FAA0007F0DAEF07F0FEEF07F0FF0E3514306EA8
:100FBA00FF0E3614316EFF0E3714326E7F0E381460
:100FCA00336E3050311032103310D8B4EFEF07F0CF
:100FDA00F1EF07F0F5EF07F0010E396EFEEF07F0BB
:100FEA003BA0FAEF07F0FCEF07F0FEEF07F0F1EF96
:100FFA0007F03950D8B404EF08F006EF08F02AEFEA
:10100A0008F0010E3B26000E3C223D223E223EA065
:10101A0011EF08F013EF08F02AEF08F03BC030F0A8
:10102A003CC031F03DC032F03EC033F0333433328D
:10103A0032323132303230C03BF031C03CF032C053
:10104A003DF033C03EF03F4A402A40BE35EF08F03B
:10105A00405008E13F28D8A035EF08F037EF08F0F4
:10106A0041EF08F0000E3B6E000E3C6E800E3D6EA6
:10107A007F0E3E6E6FEF08F040BE4EEF08F0405014
:10108A0006E13F04D8B04CEF08F04EEF08F05AEFF3
:10109A0008F0000E3B6E000E3C6E000E3D6E000E18
:1010AA003E6E000E346E6FEF08F03FC03AF0FF0E4E
:1010BA003B16FF0E3C167F0E3D16000E3E163AA05A
:1010CA0069EF08F06BEF08F06CEF08F03D8ED890EE
:1010DA003A303E6E34503E123BC028F03CC029F0F4
:1010EA003DC02AF03EC02BF01200E80E0001916FBD
:1010FA00010E926F000E936F000E946F7E517D1158
:10110A0009E1400E7B5D1F0E7C59D8B08FEF08F0C5
:10111A0091EF08F09BEF08F0000E846F020E836FC8
:10112A00000E866F100E856FA3EF08F0000E846F15
:10113A00000E836F000E866F010E856F7E517D1142
:10114A000BE1E90E7B5D010E7C59D8A0AFEF08F0E8
:10115A00B1EF08F0BFEF08F0000E8C6F070E8B6F2F
:10116A00000E876F120E886F7A0E896F000E8A6FD3
:10117A0097EF09F0D89094339333923391337B519C
:10118A00915D7C5192597D5193597E519459D8B0B1
:10119A00D1EF08F0D3EF08F0E1EF08F0000E8C6F02
:1011AA00060E8B6F000E876F090E886F3D0E896FD2
:1011BA00000E8A6F97EF09F0D890943393339233E5
:1011CA0091337B51915D7C5192597D5193597E5156
:1011DA009459D8B0F3EF08F0F5EF08F003EF09F0EF
:1011EA00000E8C6F050E8B6F800E876F840E886FD2
:1011FA001E0E896F000E8A6F97EF09F0D89094330C
:10120A009333923391337B51915D7C5192597D5145
:10121A0093597E519459D8B015EF09F017EF09F098
:10122A0025EF09F0000E8C6F040E8B6F400E876F4E
:10123A00420E886F0F0E896F000E8A6F97EF09F0C2
:10124A00D89094339333923391337B51915D7C518F
:10125A0092597D5193597E519459D8B037EF09F07C
:10126A0039EF09F047EF09F0000E8C6F030E8B6F10
:10127A00200E876FA10E886F070E896F000E8A6F86
:10128A0097EF09F0D89094339333923391337B518B
:10129A00915D7C5192597D5193597E519459D8B0A0
:1012AA0059EF09F05BEF09F069EF09F0000E8C6F56
:1012BA00020E8B6F900E876FD00E886F030E896FA8
:1012CA00000E8A6F97EF09F0D890943393339233D4
:1012DA0091337B51915D7C5192597D5193597E5145
:1012EA009459D8B07BEF09F07DEF09F08BEF09F044
:1012FA00000E8C6F010E8B6F480E876FE80E886F99
:10130A00010E896F000E8A6F97EF09F0000E8C6F3D
:10131A00000E8B6F180E876F790E886F000E896F1B
:10132A00000E8A6F000E2C6E000E2D6E800E2E6E31
:10133A00400E2F6E85C001F086C002F0000E02BE7C
:10134A00FF0E036E046E010E89EC0DF001C028F049
:10135A0002C029F003C02AF004C02BF065EC06F0A5
:10136A0028C07FF029C080F02AC081F02BC082F00B
:10137A007BC001F07CC002F07DC003F07EC004F0A7
:10138A00000E89EC0DF001C02CF002C02DF003C054
:10139A002EF004C02FF07FC028F080C029F081C051
:1013AA002AF082C02BF065EC06F028C013F029C0A1
:1013BA0014F02AC015F02BC016F087C001F088C0BF
:1013CA0002F089C003F08AC004F0000E89EC0DF027
:1013DA0001C00FF002C010F003C011F004C012F0F7
:1013EA004BEC0AF00FC041F010C042F011C043F0BC
:1013FA0012C044F0000E456E000E466E800E476E17
:10140A00BF0E486E05EC04F041C08DF042C08EF06C
:10141A0043C08FF044C090F08DC059F08EC05AF08E
:10142A008FC05BF090C05CF018EC0CF059C08DF0E6
:10143A005AC08EF05BC08FF05CC090F08BC05DF03C
:10144A00070E5D165D38F00B0209D36E8DC051F0A0
:10145A008EC052F08FC053F090C054F0E0EC0FF001
:10146A005150CB6E83C0CAFF000ECC6ECA848DC0A9
:10147A0051F08EC052F08FC053F090C054F0E0EC9F
:10148A000FF051C07BF052C07CF012001250800B5A
:10149A001F6E12501224266E11AE56EF0AF058EF44
:1014AA000AF059EF0AF026802650D8B45FEF0AF006
:1014BA0061EF0AF076EF0AF02628D8A467EF0AF05F
:1014CA0069EF0AF071EF0AF0000E0F6E000E106E4F
:1014DA00000E116E000E126E118E000E126E7EEF4D
:1014EA000AF0000E0F6E000E106E000E116E000E46
:1014FA00126E1650800B1F1A16501624276E15AE40
:10150A0089EF0AF08BEF0AF08CEF0AF02780275058
:10151A00D8B492EF0AF094EF0AF0A9EF0AF027285C
:10152A00D8A49AEF0AF09CEF0AF0A4EF0AF0000E92
:10153A00136E000E146E000E156E000E166E158ECA
:10154A00000E166EB1EF0AF0000E136E000E146E46
:10155A00000E156E000E166E13501410151016108C
:10156A00D8A4BAEF0AF0BCEF0AF0D4EF0AF0000EE2
:10157A000F6E000E106E000E116E000E126E800EAF
:10158A0011127F0E12121F5012120FC00FF010C04C
:10159A0010F011C011F012C012F017EF0CF0265023
:1015AA00D8A4DAEF0AF0DCEF0AF0E6EF0AF0000E50
:1015BA000F6E000E106E000E116E000E126E17EFF7
:1015CA000CF0275026C017F0186A175E000E185A3A
:1015DA007F0E1724206E000E1820216E0FC01BF0FC
:1015EA0010C01CF011C01DF012C01EF0000E0F6ECC
:1015FA00000E106E000E116E000E126E000E226E9C
:10160A00000E236E000E246E000E256E000E276E4D
:10161A0047EF0BF02750D8B415EF0BF017EF0BF08C
:10162A002EEF0BF0D8901B361C361D361E36D8907E
:10163A000F3610361136123625AE26EF0BF028EF8C
:10164A000BF029EF0BF00F80D89022362336243680
:10165A00253613501B5C14501C5815501D58165033
:10166A001E58D8A03BEF0BF03DEF0BF046EF0BF006
:10167A00258C13501B5E14501C5A15501D5A1650B7
:10168A001E5A272A190E27644DEF0BF04FEF0BF065
:10169A000FEF0BF01B501C101D101E10D8B458EF82
:1016AA000BF05AEF0BF072EF0BF0228072EF0BF097
:1016BA00D8900F3610361136123625AE67EF0BF07A
:1016CA0069EF0BF06AEF0BF00F80D89022362336C1
:1016DA00243625362006D8A0210611AE77EF0BF066
:1016EA0079EF0BF05DEF0BF0000E276E25AE80EF61
:1016FA000BF082EF0BF0A6EF0BF0FF0E2214176E21
:10170A00FF0E2314186EFF0E2414196E7F0E251473
:10171A001A6E1750181019101A10D8B497EF0BF048
:10172A0099EF0BF09DEF0BF0010E276EA6EF0BF071
:10173A000FA0A2EF0BF0A4EF0BF0A6EF0BF099EFBE
:10174A000BF02750D8B4ACEF0BF0AEEF0BF0D2EFA2
:10175A000BF0010E0F26000E10221122122212A0E7
:10176A00B9EF0BF0BBEF0BF0D2EF0BF00FC017F095
:10177A0010C018F011C019F012C01AF01A341A3237
:10178A0019321832173217C00FF018C010F019C0EA
:10179A0011F01AC012F0204A212A21BEDDEF0BF007
:1017AA00215008E12028D8A0DDEF0BF0DFEF0BF085
:1017BA00EAEF0BF0000E216E2068000E0F6E000E8D
:1017CA00106E000E116E000E126E21BEF7EF0BF0B6
:1017DA00215006E12004D8B0F5EF0BF0F7EF0BF03B
:1017EA0005EF0CF0000E216E000E206E000E0F6E3B
:1017FA00000E106E000E116E000E126E000E1F6E9D
:10180A0020C026F026A00CEF0CF00EEF0CF011EF22
:10181A000CF0118E12EF0CF0119ED8902630126E39
:10182A00C8EF0AF01200CBC06EF0CCC06FF0CDC08A
:10183A0070F0CEC071F059C06EF05AC06FF05BC044
:10184A0070F05CC071F06EC060F06FC061F070C083
:10185A0062F071C063F0180E39EF0CF00001D890F5
:10186A006333623361336033E82E33EF0CF0605137
:10187A006C6F6D6B6DBF4BEF0CF06D5109E1960EFD
:10188A006C5DD8A04BEF0CF04DEF0CF057EF0CF05D
:10189A0059C059F05AC05AF05BC05BF05CC05CF0AA
:1018AA0088EF0DF071BF5CEF0CF05FEF0CF0010EEA
:1018BA0060EF0CF0000E766F7651D8B467EF0CF03B
:1018CA0069EF0CF07BEF0CF059C001F05AC002F03E
:1018DA005BC003F05CC004F03BEC13F001C059F0AC
:1018EA0002C05AF003C05BF004C05CF000016DBF97
:1018FA008AEF0CF06D5107E17E0E6C5DD8B088EF6F
:10190A000CF08AEF0CF094EF0CF0000E596E000EFA
:10191A005A6E000E5B6E000E5C6E88EF0DF0000EC4
:10192A00456E000E466E000E476E4B0E486E59C04D
:10193A0041F05AC042F05BC043F05CC044F005EC91
:10194A0004F041C072F042C073F043C074F044C066
:10195A0075F0000E456E000E466E000E476ECB0EF9
:10196A00486E72C041F073C042F074C043F075C053
:10197A0044F005EC04F041C064F042C065F043C095
:10198A0066F044C067F064C051F065C052F066C0AA
:10199A0053F067C054F059C055F05AC056F05BC0B6
:1019AA0057F05CC058F0C1EC12F051C077F052C049
:1019BA0078F053C079F054C07AF0000E0001686FD5
:1019CA00000E696F000E6A6F000E6B6F000E016EDB
:1019DA00000E026E000E036E3F0E046E77C005F015
:1019EA0078C006F079C007F07AC008F063EC10F00E
:1019FA00D8B002EF0DF004EF0DF00FEF0DF0000E6E
:101A0A000001686F000E696F800E6A6FBF0E6B6F00
:101A1A0031EF0DF0000E016E000E026E000E036E25
:101A2A00BF0E046E77C005F078C006F079C007F0E3
:101A3A007AC008F063EC10F0D8A026EF0DF028EF7A
:101A4A000DF031EF0DF0000E0001686F000E696FA6
:101A5A00800E6A6F3F0E6B6F59C045F05AC046F050
:101A6A005BC047F05CC048F077C041F078C042F0F4
:101A7A0079C043F07AC044F005EC04F041C072F03A
:101A8A0042C073F043C074F044C075F072C041F0B4
:101A9A0073C042F074C043F075C044F068C045F0AA
:101AAA0069C046F06AC047F06BC048F005EC04F024
:101ABA0041C077F042C078F043C079F044C07AF070
:101ACA0000017651D8B46CEF0DF06EEF0DF080EF97
:101ADA000DF077C001F078C002F079C003F07AC047
:101AEA0004F03BEC13F001C077F002C078F003C0B9
:101AFA0079F004C07AF077C059F078C05AF079C00A
:101B0A005BF07AC05CF01200096E0950D8B490EF0D
:101B1A000DF092EF0DF0B4EF0DF004BE99EF0DF059
:101B2A0097EF0DF0B4EF0DF001C005F002C006F01A
:101B3A0003C007F004C008F0051E061E071E081E93
:101B4A00052A000E06220722082205C00BF006C04D
:101B5A000CF007C00DF008C00EF0BCEF0DF001C08C
:101B6A000BF002C00CF003C00DF004C00EF00150DF
:101B7A00021003100410D8A4C5EF0DF0C7EF0DF042
:101B8A00D1EF0DF0000E016E000E026E000E036E14
:101B9A00000E046E62EF0EF0960E0A6EDBEF0DF089
:101BAA000A2AD8900E320D320C320B32000E0B1468
:101BBA00056E000E0C14066E000E0D14076EFE0E56
:101BCA000E14086E0550061007100810D8A4F0EF7E
:101BDA000DF0F2EF0DF0D5EF0DF000EF0EF00A2A3E
:101BEA00010E0B26000E0C220D220E22D8900E3268
:101BFA000D320C320B32000E0B14056E000E0C1453
:101C0A00066E000E0D14076EFF0E0E14086E0550B8
:101C1A00061007100810D8A415EF0EF017EF0EF0F3
:101C2A00F4EF0DF01FEF0EF00A06D8900B360C36C3
:101C3A000D360E360DBE24EF0EF026EF0EF02EEF07
:101C4A000EF0020E0A602CEF0EF02EEF0EF019EFD6
:101C5A000EF00AB033EF0EF035EF0EF036EF0EF05D
:101C6A000D9ED8900A320AC005F0066A076A086A09
:101C7A0005C008F0076A066A056A05500B12065085
:101C8A000C1207500D1208500E120950D8B450EF1A
:101C9A000EF052EF0EF05AEF0EF004BE59EF0EF0AE
:101CAA0057EF0EF05AEF0EF00E8E0BC001F00CC07B
:101CBA0002F00DC003F00EC004F012000C50D96EF1
:101CCA00DA6ADFCFF6FF0800F550250AD8A470EFCC
:101CDA000EF072EF0EF028EF0FF00C50D96EDA6AA0
:101CEA00DF2A000E0001D06F000ECF6FCFC05EF06A
:101CFA00D169D2690C50D96EDA6ADF50106E10C001
:101D0A00F6FF0800F550640AD8B48EEF0EF090EF93
:101D1A000EF09CEF0EF010C0F6FF0800F550690AAD
:101D2A00D8A49AEF0EF09CEF0EF022EF0FF00D50B0
:101D3A00D96EDA6A020EDF26DF5CD96EDA6ADECF86
:101D4A0011F0DECF12F00C50D96EDA6A1028DF6E6D
:101D5A00200E156E12BEB4EF0EF0B7EF0EF0010EA4
:101D6A00B8EF0EF0000E0F6E15061550AB0FD96EB8
:101D7A00DA6A11C001F012C002F0000E046E0A0EF7
:101D8A00036EC6EC11F001C007F002C008F071EC56
:101D9A0013F00750300FDF6E11C001F012C002F0CD
:101DAA00000E046E0A0E036E64EC11F001C011F00D
:101DBA0002C012F011501210D8B4E6EF0EF0E8EF9C
:101DCA000EF0F0EF0EF01550D8A4EEEF0EF0F0EF93
:101DDA000EF0B9EF0EF01550D8B4F6EF0EF0F8EF9A
:101DEA000EF017EF0FF00F50D8B4FEEF0EF000EF21
:101DFA000FF017EF0FF015061550AB0FD96EDA6A10
:101E0A002D0EDF6E17EF0FF01550AB0FD96EDA6A91
:101E1A00DF500E6E0E50016E026A0BC003F01EEC0C
:101E2A0012F0152A200E1518D8A41EEF0FF020EF75
:101E3A000FF009EF0FF037EF0FF00C50D96EDA6A96
:101E4A00DF2A37EF0FF00C50D96EDA6ADFCFF6FFD0
:101E5A000800F550016E026A0BC003F01EEC12F086
:101E6A0022EF0FF01200720ED36E01EC13F0DEECCB
:101E7A0013F0E8EC13F0320E00017B6F000E7C6F5A
:101E8A00000E7D6F000E7E6F7AEC08F07BC0A7F023
:101E9A007CC0A8F0000E026E000E016E73EC12F008
:101EAA0001C0A9F002C0AAF0950E1A6E050E1B6EAB
:101EBA00A9C01CF0AAC01DF057EC13F0000E2C6E3E
:101ECA00000E2D6E100E2E6E410E2F6E000E136E2A
:101EDA00000E146E800E156E400E166EA9C001F02B
:101EEA00AAC002F0000E02BEFF0E036E046E010EBF
:101EFA0089EC0DF001C00FF002C010F003C011F020
:101F0A0004C012F04BEC0AF00FC028F010C029F000
:101F1A0011C02AF012C02BF065EC06F028C0A3F01D
:101F2A0029C0A4F02AC0A5F02BC0A6F0000E136E9B
:101F3A00000E146E7F0E156E430E166EA3C00FF0C0
:101F4A00A4C010F0A5C011F0A6C012F04BEC0AF024
:101F5A000FC041F010C042F011C043F012C044F06B
:101F6A00000E456E000E466E400E476E400E486EDD
:101F7A0005EC04F041C09FF042C0A0F043C0A1F0BC
:101F8A0044C0A2F09FC060F0A0C061F0A1C062F09E
:101F9A00A2C063F0A7C064F0A8C065F0E5EC10F039
:101FAA00950E056E8BEC13F0010E1EEC13F04FEF3D
:101FBA000FF000EF00F0533454345A6E5A50D8A43C
:101FCA00E9EF0FF0EBEF0FF0F5EF0FF0000E516EA7
:101FDA00000E526E000E536E000E546E62EF10F039
:101FEA0051C055F052C056F053C057F054C058F083
:101FFA00200E05EF10F0D89058325732563255322B
:10200A00E82E00EF10F05550596E538EFF0E511600
:10201A00FF0E5216FF0E5316000E5416960E5A5EF7
:10202A005ABE1CEF10F01AEF10F032EF10F05A50AF
:10203A00800A970FD8B024EF10F026EF10F028EF9F
:10204A0010F0EBEF0FF0D890543253325232513233
:10205A005A3E28EF10F04AEF10F01F0E5A6438EF7C
:10206A0010F03AEF10F042EF10F0EBEF0FF0D890CB
:10207A0051365236533654365A065A50D8A448EF77
:10208A0010F04AEF10F03CEF10F05950D8B450EF6E
:10209A0010F052EF10F05AEF10F0541E531E521E59
:1020AA00516C000E52225322542251C051F052C098
:1020BA0052F053C053F054C054F01200000E0114F1
:1020CA00096E000E02140A6E800E03140B6E7F0E48
:1020DA0004140C6E09500A100B100C10D8A478EFD7
:1020EA0010F07AEF10F082EF10F0000E016E000E81
:1020FA00026E000E036E000E046E000E0514096EC9
:10210A00000E06140A6E800E07140B6E7F0E08145A
:10211A000C6E09500A100B100C10D8A497EF10F08F
:10212A0099EF10F0A1EF10F0000E056E000E066E8A
:10213A00000E076E000E086E04AEA6EF10F0A8EFB0
:10214A0010F0B1EF10F0016C021ED8B0022A031E83
:10215A00D8B0032A800E045608AEB6EF10F0B8EFD6
:10216A0010F0C1EF10F0056C061ED8B0062A071E43
:10217A00D8B0072A800E0856000E011A000E021A5D
:10218A00000E031A800E041A000E051A000E061A13
:10219A00000E071A800E081A0550015C06500258F4
:1021AA000750035808500458D8B0DEEF10F0E0EF9B
:1021BA0010F0E3EF10F0D890E4EF10F0D88012009E
:1021CA00000E2C6E000E2D6E800E2E6E400E2F6E9F
:1021DA00000E456E000E466E800E476E3F0E486E2C
:1021EA0064C001F065C002F0000E02BEFF0E036E6D
:1021FA00046E010E89EC0DF001C041F002C042F0FC
:10220A0003C043F004C044F005EC04F041C028F0D8
:10221A0042C029F043C02AF044C02BF065EC06F016
:10222A0028C066F029C067F02AC068F02BC069F0A0
:10223A00000E136E000E146EC80E156E420E166E48
:10224A0060C00FF061C010F062C011F063C012F0FC
:10225A004BEC0AF00FC02CF010C02DF011C02EF07C
:10226A0012C02FF066C028F067C029F068C02AF0B3
:10227A0069C02BF065EC06F028C051F029C052F075
:10228A002AC053F02BC054F0E0EC0FF051C06AF0B2
:10229A0052C06BF06AC05BF06BC05CF05C345C32BD
:1022AA005B325C345C325B325B50BE6E6AC05BF0A0
:1022BA00030E5B165B38F00B0C09BD6E1200000EA4
:1022CA00066E04BE6DEF11F06BEF11F073EF11F0B3
:1022DA00036C041ED8B0042A010E066E02BE7AEF01
:1022EA0011F078EF11F080EF11F0016C021ED8B0F6
:1022FA00022A010E061A000E086E000E076E03501F
:10230A000410D8B48BEF11F08DEF11F0B5EF11F086
:10231A00010E056E95EF11F0D89003360436052AA2
:10232A0004AE9AEF11F09CEF11F091EF11F0D890F2
:10233A00073608360350015C04500258D8A0A8EFAB
:10234A0011F0AAEF11F0AFEF11F00350015E045043
:10235A00025A0780D89004320332052E9CEF11F0FE
:10236A000650D8B4BBEF11F0BDEF11F0C1EF11F078
:10237A00076C081ED8B0082A07C001F008C002F08E
:10238A001200000E066E02BECFEF11F0CDEF11F073
:10239A00D5EF11F0016C021ED8B0022A010E066EAA
:1023AA0004BEDCEF11F0DAEF11F0E0EF11F0036C8C
:1023BA00041ED8B0042A03500410D8B4E7EF11F071
:1023CA00E9EF11F00DEF12F0010E056EF1EF11F0C9
:1023DA00D89003360436052A04AEF6EF11F0F8EF6A
:1023EA0011F0EDEF11F00350015C04500258D8A02F
:1023FA0001EF12F003EF12F007EF12F00350015E43
:10240A000450025AD89004320332052EF8EF11F024
:10241A000650D8B413EF12F015EF12F019EF12F0BC
:10242A00016C021ED8B0022A01C001F002C002F0FB
:10243A0012000350D8B424EF12F026EF12F02EEF58
:10244A0012F00350D8A42CEF12F02EEF12F033EF53
:10245A0012F00150ECEC13F072EF12F00350D96E47
:10246A00DA6A0A0ED926DE50DE10D8B43FEF12F02F
:10247A0041EF12F05AEF12F00350D96EDA6A0A0EDF
:10248A00D9260350E16EE26A030EE126DE50E65CCD
:10249A00E650800A086EDE50800A0858D8B058EF15
:1024AA0012F05AEF12F072EF12F00350D96EDA6A94
:1024BA00030ED926DF50046E0350D96EDA6ADF5054
:1024CA000424D96EDA6A01C0DFFF0350D96EDA6AD2
:1024DA00030ED926DE2A000EDD22120001C003F007
:1024EA00D8900336D89003363C0E0316C250C30B5D
:1024FA000310C26EC2B284EF12F088EF12F0036AC0
:10250A00032A89EF12F0036A010E046E032A90EF80
:10251A0012F0D8900436032E8EEF12F0C2B098EF64
:10252A0012F09CEF12F0056A052A9DEF12F0056A77
:10253A00010E066E052AA4EF12F0D8900636052E73
:10254A00A2EF12F006500410C212C2B2AFEF12F09C
:10255A00B1EF12F0AAEF12F0C350C4CF03F0046A2D
:10256A0003C004F0036A0310076E0450086E07C024
:10257A0001F008C002F01200000E551A000E561A99
:10258A00000E571A800E581A51C041F052C042F03C
:10259A0053C043F054C044F055C045F056C046F00D
:1025AA0057C047F058C048F005EC04F041C051F05C
:1025BA0042C052F043C053F044C054F0120017C056
:1025CA0019F0F0EF12F016C00BF0190E0C6E18C0CD
:1025DA000DF063EC0EF019C0F6FF0800F550000983
:1025EA00D8A4FAEF12F0FCEF12F0E8EF12F0000EA6
:1025FA00176E000E166E1200000E836E000E956E98
:10260A00838E270E056EF50EE82EFED7052EFCD713
:10261A000000320E1EEC13F0280E1EEC13F00C0E06
:10262A001EEC13F0010E1EEC13F0060E1EEC13F056
:10263A001200046E0D0E036EFC0EE82EFED7032E5A
:10264A00FCD7000E016E0450BAEC13F00438F00BFC
:10265A00046E030E036E980EE82EFED7032EFCD7E7
:10266A00000E016E0450BAEC13F012000150021071
:10267A0003100410D8B444EF13F046EF13F04EEFF2
:10268A0013F0000E011A000E021A000E031A800E31
:10269A00041A01C001F002C002F003C003F004C032
:1026AA0004F012001C0E1E6E1AC01FF0000E236EDC
:1026BA00000E226E000E2A6E000E296E1F0E166E76
:1026CA001BC017F01E0E186EE4EC12F01A502224EA
:1026DA00D96EDA6ADF6A120008BE76EF13F078EF75
:1026EA0013F07EEF13F007C007F008C008F08AEF76
:1026FA0013F007C009F008C00AF0091E0A1E094AA9
:10270A000A2A09C007F00AC008F01200000E066E75
:10271A0097EF13F005500624D96EDA6ADF50A4EC5D
:10272A0013F0062A05500624D96EDA6ADF50D8A4B7
:10273A00A1EF13F0A3EF13F08FEF13F01200046E62
:10274A000D0E036EFC0EE82EFED7032EFCD7010EEB
:10275A00016E0450BAEC13F00438F00B046E010E4B
:10276A00016E0450BAEC13F01200026E02380F0B1D
:10277A00026E02500F0B026E8350F00B836E835071
:10278A000210836E01B002D0839801D08388839AA5
:10279A00838C839C120000EEABF0280EEE6AE806EA
:1027AA00FDE15E6A000EF86E080EF76E000138EF62
:1027BA000FF092680E0EC16E920EC06E000EC46EBD
:1027CA00000EC36E120094940C0EBD6E120012001D
:020000040030CA
:0A0000000008181EFF81A0FF0FC0CA
:00000001FF
